{
    "contractName": "functions",
    "abi": [
        {
            "inputs": [],
            "name": "add",
            "outputs": [
                {
                    "internalType": "uint256",
                    "name": "",
                    "type": "uint256"
                }
            ],
            "stateMutability": "pure",
            "type": "function"
        },
        {
            "inputs": [],
            "name": "val",
            "outputs": [
                {
                    "internalType": "uint256",
                    "name": "",
                    "type": "uint256"
                }
            ],
            "stateMutability": "view",
            "type": "function"
        }
    ],
    "bytecode": "60806040526004600055348015601457600080fd5b50608d806100236000396000f3fe6080604052348015600f57600080fd5b506004361060325760003560e01c80633c6bb4361460375780634f2be91f146051575b600080fd5b603f60005481565b60405190815260200160405180910390f35b6005603f56fea26469706673582212200412f2f7c2d004dac98d75ac16ab6255626efe4cd569ae73dba1469738f40a8d64736f6c63430008130033",
    "sourcePath": "c:/Users/subha/OneDrive/Desktop/Remix/line2.sol",
    "compiler": {
        "name": "solc",
        "version": "0.8.19+commit.7dd6d404"
    },
    "functionHashes": {
        "add()": "4f2be91f",
        "val()": "3c6bb436"
    },
    "gasEstimates": {
        "creation": {
            "codeDepositCost": "28200",
            "executionCost": "22187",
            "totalCost": "50387"
        },
        "external": {
            "add()": "180",
            "val()": "2261"
        }
    }
}